:030000000207F400
:0C07F400787FE4F6D8FD75812102083BF7
:0A000E00C0F9A4B0999282F8809026
:100A3500010D00C10BC10EC10AC10DC10C01140C81
:100A450001150002100000011600020E00F002124E
:100A55000064011901C180C181C182C183C184C102
:100A650085C186C187C188C18902080000010A01C4
:10063000120583FF3395E0FE740E2FF58274003EA1
:10064000F583E493F580C2A2D2A3D2A4D2A5AF19B8
:100650007E001206BAD2A2D2A3D2A4D2A5E5147506
:10066000F00A120583AFF0EF3395E0FE740E2FF51C
:100670008274003EF583E493547FF580D2A2C2A336
:10068000D2A4D2A5AF197E001206BAD2A2D2A3D2AA
:10069000A4D2A5E51575F00A120583FF3395E0FE97
:1006A000740E2FF58274003EF583E493F580D2A298
:0A06B000D2A3C2A4D2A5AF197E00A8
:1006BA00D3EF9400EE940040147D6E7C00ED1D7023
:0D06CA00011CED4C70F7EF1F70E61E80E381
:0106D7002200
:100AC300D2AF758911758CF8758ACCD2A9C28C7591
:0A0AD3008D4CE4F58BD2ABC28E22ED
:10001E00A2B39200A200300101B350287F017E00EE
:10002E001206BAA20030B301B34019300112C20A4F
:10003E00C28CB20ED2A2D2A3D2A4D2A5C2A7C2A6FD
:10004E00A2009201200E6D20B6307F0A7E001206AD
:10005E00BA20B626C20AD20DD28C90000FE493F5C8
:10006E0080D2A2D2A3D2A4C2A530B6FDC28CC2A7A2
:10007E00C2A6D2A2D2A3D2A4D2A530B703020297AF
:10008E007F0A7E001206BA30B703020297C20AC276
:10009E000DD28C90000EE493F580D2A2D2A3D2A4FE
:1000AE00C2A530B7FDC28CC2A7C2A6D2A2D2A3D21D
:1000BE00A4D2A522A2B49202A202300301B3501A16
:1000CE007F017E001206BAA20230B401B3400B309B
:1000DE000304C20AB20BA2029203A2B59204A204B6
:1000EE00300501B350247F017E001206BAA20430FF
:1000FE00B501B3401530050EC20AC28C050DE50DD3
:10010E00B40303E4F50DA2049205E50D640160034A
:10011E000201B0A2B69206A206300701B3503A7F92
:10012E00017E001206BAA20630B601B3402B30078C
:10013E0024200B17050FE50F7002050EB40016E50F
:10014E000EB40111E4F50EF50F800A0514E514B492
:10015E001803E4F514A2069207A2B79208A208307B
:10016E000901B3503D7F017E001206BAA20830B7D6
:10017E0001B3402E300927200B1AE50F150F700220
:10018E00150EE50FB4FF17E50EB4FF12750E0075D0
:10019E000FFF800A1514E514B4FF03751417A20897
:1001AE009209E50D64026003020248A2B69206A20D
:1001BE0006300701B3503A7F017E001206BAA2063E
:1001CE0030B601B3402B300724200B170513E5136F
:1001DE0070020512B40016E512B40111E4F512F521
:1001EE0013800A0515E515B43C03E4F515A2069235
:1001FE0007A2B79208A208300901B3503D7F017ED5
:10020E00001206BAA20830B701B3402E30092720DB
:10021E000B1AE513151370021512E513B4FF17E54B
:10022E0012B4FF127512007513FF800A1515E5152D
:10023E00B4FF0375153BA2089209300B4CE50D7007
:10024E0048A2B69206A206300701B350187F017E6F
:10025E00001206BAA20630B601B34009300702D228
:10026E000CA2069207A2B79208A208300901B35059
:10027E00187F017E001206BAA20830B701B34009FA
:09028E00300902C20CA208920919
:010297002244
:10088000AE0BAF0C7C007D641205FA740E2FF5825E
:1008900074003EF583E493F580D2A2C2A3D2A412E1
:1008A00006B4D2A2D2A3D2A4D2A5AE0BAF0C7C00C8
:1008B0007D641205FA7E007F0ACFCDCFCECCCE125A
:1008C00005FA1206A0D2A2D2A3D2A4D2A5AE0BAF33
:1008D0000C7C007D0A1205FA740E2DF58274003C22
:1008E000F583E493F580D2A2D2A3D2A4C2A51206C6
:0A08F000B6D2A2D2A3D2A4D2A52250
:1006D800758089C2A2D2A3D2A41206B4D2A2D2A390
:1006E800D2A4D2A5AE0EAF0F7C007D641205A5740E
:1006F8000E2FF58274003EF583E493F580D2A2C2F2
:10070800A3D2A41206B4D2A2D2A3D2A4D2A5AE0E6A
:10071800AF0F7C007D641205A57E007F0ACFCDCF88
:10072800CECCCE1205A51206A0D2A2D2A3D2A4D2B4
:10073800A5AE0EAF0F7C007D0A1205A5740E2DF52F
:100748008274003CF583E493F580D2A2D2A3D2A4AC
:0E075800C2A51206B6D2A2D2A3D2A4D2A52266
:100766007580C7C2A2D2A3D2A41206B4D2A2D2A3C3
:10077600D2A4D2A5AE12AF137C007D641205A57477
:100786000E2FF58274003EF583E493F580D2A2C263
:10079600A3D2A41206B4D2A2D2A3D2A4D2A5AE12D8
:1007A600AF137C007D641205A57E007F0ACFCDCFF6
:1007B600CECCCE1205A51206A0D2A2D2A3D2A4D226
:1007C600A5AE12AF137C007D0A1205A5740E2DF599
:1007D6008274003CF583E493F580D2A2D2A3D2A41E
:0E07E600C2A51206B6D2A2D2A3D2A4D2A522D8
:1003AB000518E51870020517E518649645177006D1
:1003BB00F517F51880F2C3E518944BE51764809494
:1003CB0080E51475F00A504C120583FF3395E0FE5F
:1003DB00740E2FF58274003EF583E493F580C2A270
:1003EB00D2A3D2A41206B4D2A2D2A3D2A4D2A5E590
:1003FB001475F00A120583AFF0EF3395E0FE740E1F
:10040B002FF58274003EF583E493547FF580D2A2DE
:10041B00C2A3804A120583FF3395E0FE740E2FF5BD
:10042B008274003EF583E493F580D2A2D2A3D2A4CA
:10043B001206B4D2A2D2A3D2A4D2A5E51475F00AA7
:10044B00120583AFF0EF3395E0FE740E2FF5827437
:10045B00003EF583E493547FF580D2A2D2A312061B
:10046B0080D2A2D2A3D2A4D2A5E51575F00A1205AB
:10047B0083AFF0EF3395E0FE740E2FF58274003EE0
:10048B00F583E493547FF580D2A2D2A3D2A4C2A564
:0C049B001206B6D2A2D2A3D2A4D2A5228F
:100298000518E51870020517E518649645177006E5
:1002A800F517F51880F2C3E518944BE517648094A8
:1002B80080E51475F00A5035120630D2A2D2A3D2C6
:1002C800A4D2A5E51575F00A120583AFF0EF3395B2
:1002D800E0FE740E2FF58274003EF583E493547F9C
:1002E800F580D2A2D2A3D2A4C2A502039F1205838D
:1002F800FF3395E0FE740E2FF58274003EF583E41B
:1003080093F580C2A2D2A3D2A41206B4D2A2D2A3D9
:10031800D2A4D2A5E51475F00A120583AFF0EF3325
:1003280095E0FE740E2FF58274003EF583E4935435
:100338007FF580D2A2C2A3D2A41206B4D2A2D2A3BD
:10034800D2A4D2A5E51575F00A120583FF3395E00E
:10035800FE740E2FF58274003EF583E493F580D287
:10036800A2D2A3D2A41206B4D2A2D2A3D2A4D2A556
:10037800E51575F00A120583AFF0EF3395E0FE74CA
:100388000E2FF58274003EF583E493547FF580D2F6
:10039800A2D2A3D2A4D2A51206B6D2A2D2A3D2A424
:0303A800D2A522B9
:1004A700C3E5166480948A4050E51475F00A120675
:1004B70030D2A2D2A3D2A4D2A5E51575F00A200C9A
:1004C7001B120583AFF0EF3395E0FE740E2FF58214
:1004D70074003EF583E493F58002056F120583AF40
:1004E700F0EF3395E0FE740E2FF58274003EF5832E
:1004F700E493547FF58002056FE51475F00A120541
:1005070083FF3395E0FE740E2FF58274003EF5836A
:10051700E493F580C2A2D2A3D2A41206B4D2A2D287
:10052700A3D2A4D2A5E51475F00A120583AFF0EFA4
:100537003395E0FE740E2FF58274003EF583E49345
:1005470012067AD2A2D2A3D2A4D2A5E51575F00AD3
:10055700120583AFF0EF3395E0FE740E2FF582742A
:10056700003EF583E493F580D2A2D2A3D2A4C2A51C
:0C0577001206B6D2A2D2A3D2A4D2A522B2
:10095400200A2DE50D700C200B030208801204A759
:10096400C28C22E50DB40109200B030206D8020350
:10097400ABE50D64027028200B030207660202989F
:10098400300C09D20DD28C90000F8007C20DD28C8E
:1009940090000EE493F580D2A2D2A3D2A4C2A522E1
:1009A400C2B0C2B27F017E001206BAD2B2D2B0E4A3
:1009B400F508F50912095412001E0509E50970022B
:1009C4000508C39482E508940040E97590FFC2B01D
:1009D400C2B17F017E001206BAAF90750B008F0C76
:0B09E400D2B1D2B07F017E000206BA43
:100A7600300E26C3E50C9513E50B95125005D20DE5
:100A8600D28C22D3E50C950FE50B950E4005C20DD1
:0A0A9600D28C22C28CC2A7C2A62295
:100AA000120AC3C20C12001E300E14200B0AC28E92
:100AB0001209A4120A768002D28E12095480E6C26C
:030AC0008E80E243
:03000B000209EFF8
:0409EF00C0E0C0D0D4
:1009F300758CF8758ACC300D1230A10DE50AD394AD
:100A030001501AD2A7C2A68018801230A00FE50A9F
:100A1300D394015006C2A7D2A680068000C2A7C203
:0D0A2300A6050AE50AB41205750A0180F661
:050A3000D0D0D0E0323F
:03001B000208FADE
:1008FA00C0E0C0D0758D4C758B000516E5166414E2
:10090A007043F516E511151170021510E511B4FFC3
:10091A0019E510B4FF1475100075113B1515E5158E
:10092A00B4FFE975153B151480F4E51470CEE5158E
:10093A0070CAE511451070C475140CF515F510F55B
:0A094A0011D20A80E5D0D0D0E032CF
:10080000020AA0E493A3F8E493A34003F68001F264
:1008100008DFF48029E493A3F85407240CC8C333F9
:10082000C4540F4420C8834004F456800146F6DFC8
:10083000E4800B0102040810204080900A35E47E19
:10084000019360BCA3FF543F30E509541FFEE493BD
:10085000A360010ECF54C025E060A840B8E493A384
:10086000FAE493A3F8E493A3C8C582C8CAC583CAAF
:10087000F0A3C8C582C8CAC583CADFE9DEE780BE67
:010A75000080
:10058300C2D530F707B2D563F0FF05F030E70CB200
:10059300D5F4048463F0FF05F080018430D502F4C0
:0205A300042230
:1005A500BC000BBE0029EF8DF084FFADF022E4CC3A
:1005B500F875F008EF2FFFEE33FEEC33FCEE9DEC03
:1005C500984005FCEE9DFE0FD5F0E9E4CEFD22ED49
:1005D500F8F5F0EE8420D21CFEADF075F008EF2F93
:1005E500FFED33FD4007985006D5F0F222C398FD84
:0505F5000FD5F0EA2221
:1005FA00C2D5EC30E709B2D5E4C39DFDE49CFCEE1C
:10060A0030E715B2D5E4C39FFFE49EFE1205A5C3E9
:10061A00E49DFDE49CFC80031205A530D507C3E4E4
:06062A009FFFE49EFE228A
:00000001FF
